{
  "contractName": "SimpleDigitalNotary",
  "abi": [
    {
      "anonymous": false,
      "inputs": [
        {
          "indexed": true,
          "internalType": "address",
          "name": "owner",
          "type": "address"
        },
        {
          "indexed": false,
          "internalType": "string",
          "name": "documentHash",
          "type": "string"
        },
        {
          "indexed": false,
          "internalType": "uint256",
          "name": "timestamp",
          "type": "uint256"
        }
      ],
      "name": "DocumentNotarized",
      "type": "event"
    },
    {
      "inputs": [
        {
          "internalType": "string",
          "name": "_documentHash",
          "type": "string"
        }
      ],
      "name": "notarizeDocument",
      "outputs": [],
      "stateMutability": "nonpayable",
      "type": "function"
    },
    {
      "inputs": [
        {
          "internalType": "string",
          "name": "_documentHash",
          "type": "string"
        }
      ],
      "name": "verifyDocument",
      "outputs": [
        {
          "internalType": "bool",
          "name": "",
          "type": "bool"
        },
        {
          "internalType": "address",
          "name": "",
          "type": "address"
        },
        {
          "internalType": "uint256",
          "name": "",
          "type": "uint256"
        }
      ],
      "stateMutability": "view",
      "type": "function",
      "constant": true
    },
    {
      "inputs": [
        {
          "internalType": "string",
          "name": "_documentHash",
          "type": "string"
        }
      ],
      "name": "getDocumentDetails",
      "outputs": [
        {
          "internalType": "address",
          "name": "owner",
          "type": "address"
        },
        {
          "internalType": "uint256",
          "name": "timestamp",
          "type": "uint256"
        }
      ],
      "stateMutability": "view",
      "type": "function",
      "constant": true
    }
  ],
  "bytecode": "0x608060405234801561001057600080fd5b50610929806100206000396000f3fe608060405234801561001057600080fd5b50600436106100415760003560e01c80636a33bf8714610046578063beee5eb714610062578063d29352db14610094575b600080fd5b610060600480360381019061005b9190610569565b6100c5565b005b61007c60048036038101906100779190610569565b61025c565b60405161008b93929190610627565b60405180910390f35b6100ae60048036038101906100a99190610569565b610325565b6040516100bc92919061065e565b60405180910390f35b6000815111610109576040517f08c379a0000000000000000000000000000000000000000000000000000000008152600401610100906106e4565b60405180910390fd5b6000808260405161011a9190610775565b9081526020016040518091039020600101541461016c576040517f08c379a0000000000000000000000000000000000000000000000000000000008152600401610163906107fe565b60405180910390fd5b60405180604001604052803373ffffffffffffffffffffffffffffffffffffffff168152602001428152506000826040516101a79190610775565b908152602001604051809103902060008201518160000160006101000a81548173ffffffffffffffffffffffffffffffffffffffff021916908373ffffffffffffffffffffffffffffffffffffffff160217905550602082015181600101559050503373ffffffffffffffffffffffffffffffffffffffff167fdb74b8f6ac187400becf0168a249610d9a81037c821d44587537a3722b1aac088242604051610251929190610857565b60405180910390a250565b6000806000806000856040516102729190610775565b90815260200160405180910390206040518060400160405290816000820160009054906101000a900473ffffffffffffffffffffffffffffffffffffffff1673ffffffffffffffffffffffffffffffffffffffff1673ffffffffffffffffffffffffffffffffffffffff16815260200160018201548152505090506000816020015114610311576001816000015182602001519350935093505061031e565b6000806000935093509350505b9193909250565b600080600080846040516103399190610775565b90815260200160405180910390206040518060400160405290816000820160009054906101000a900473ffffffffffffffffffffffffffffffffffffffff1673ffffffffffffffffffffffffffffffffffffffff1673ffffffffffffffffffffffffffffffffffffffff168152602001600182015481525050905060008160200151036103fb576040517f08c379a00000000000000000000000000000000000000000000000000000000081526004016103f2906108d3565b60405180910390fd5b806000015181602001519250925050915091565b6000604051905090565b600080fd5b600080fd5b600080fd5b600080fd5b6000601f19601f8301169050919050565b7f4e487b7100000000000000000000000000000000000000000000000000000000600052604160045260246000fd5b6104768261042d565b810181811067ffffffffffffffff821117156104955761049461043e565b5b80604052505050565b60006104a861040f565b90506104b4828261046d565b919050565b600067ffffffffffffffff8211156104d4576104d361043e565b5b6104dd8261042d565b9050602081019050919050565b82818337600083830152505050565b600061050c610507846104b9565b61049e565b90508281526020810184848401111561052857610527610428565b5b6105338482856104ea565b509392505050565b600082601f8301126105505761054f610423565b5b81356105608482602086016104f9565b91505092915050565b60006020828403121561057f5761057e610419565b5b600082013567ffffffffffffffff81111561059d5761059c61041e565b5b6105a98482850161053b565b91505092915050565b60008115159050919050565b6105c7816105b2565b82525050565b600073ffffffffffffffffffffffffffffffffffffffff82169050919050565b60006105f8826105cd565b9050919050565b610608816105ed565b82525050565b6000819050919050565b6106218161060e565b82525050565b600060608201905061063c60008301866105be565b61064960208301856105ff565b6106566040830184610618565b949350505050565b600060408201905061067360008301856105ff565b6106806020830184610618565b9392505050565b600082825260208201905092915050565b7f446f63756d656e7420686173682063616e6e6f7420626520656d7074792e0000600082015250565b60006106ce601e83610687565b91506106d982610698565b602082019050919050565b600060208201905081810360008301526106fd816106c1565b9050919050565b600081519050919050565b600081905092915050565b60005b8381101561073857808201518184015260208101905061071d565b60008484015250505050565b600061074f82610704565b610759818561070f565b935061076981856020860161071a565b80840191505092915050565b60006107818284610744565b915081905092915050565b7f446f63756d656e742068617320616c7265616479206265656e206e6f7461726960008201527f7a65642e00000000000000000000000000000000000000000000000000000000602082015250565b60006107e8602483610687565b91506107f38261078c565b604082019050919050565b60006020820190508181036000830152610817816107db565b9050919050565b600061082982610704565b6108338185610687565b935061084381856020860161071a565b61084c8161042d565b840191505092915050565b60006040820190508181036000830152610871818561081e565b90506108806020830184610618565b9392505050565b7f446f63756d656e7420686173206e6f74206265656e206e6f746172697a65642e600082015250565b60006108bd602083610687565b91506108c882610887565b602082019050919050565b600060208201905081810360008301526108ec816108b0565b905091905056fea26469706673582212201fbf7b059b652729ce8fe5afdf28cb2c8ac8a7e25782c4dcc1ae7324a6d6c95c64736f6c63430008120033",
  "immutableReferences": {},
  "source": "// SPDX-License-Identifier: MIT\r\npragma solidity ^0.8.18;\r\n\r\ncontract SimpleDigitalNotary {\r\n    \r\n    // Struct to store document details\r\n    struct Document {\r\n        address owner;         // Owner of the document\r\n        uint256 timestamp;     // Timestamp of when the document was notarized\r\n    }\r\n\r\n    // Mapping to store the document hash and its details\r\n    mapping(string => Document) private documents;\r\n\r\n    // Event to notify that a document has been notarized\r\n    event DocumentNotarized(address indexed owner, string documentHash, uint256 timestamp);\r\n\r\n    // Function to notarize a document by storing its hash\r\n    function notarizeDocument(string memory _documentHash) public {\r\n        require(bytes(_documentHash).length > 0, \"Document hash cannot be empty.\");\r\n        require(documents[_documentHash].timestamp == 0, \"Document has already been notarized.\");\r\n\r\n        // Store document details in the mapping\r\n        documents[_documentHash] = Document({\r\n            owner: msg.sender,\r\n            timestamp: block.timestamp\r\n        });\r\n\r\n        // Emit the event that the document was notarized\r\n        emit DocumentNotarized(msg.sender, _documentHash, block.timestamp);\r\n    }\r\n\r\n    // Function to verify if a document has been notarized\r\n    function verifyDocument(string memory _documentHash) public view returns (bool, address, uint256) {\r\n        Document memory doc = documents[_documentHash];\r\n        if (doc.timestamp != 0) {\r\n            // Document has been notarized\r\n            return (true, doc.owner, doc.timestamp);\r\n        } else {\r\n            // Document has not been notarized\r\n            return (false, address(0), 0);\r\n        }\r\n    }\r\n    \r\n    // Function to get the details of a notarized document\r\n    function getDocumentDetails(string memory _documentHash) public view returns (address owner, uint256 timestamp) {\r\n        Document memory doc = documents[_documentHash];\r\n        require(doc.timestamp != 0, \"Document has not been notarized.\");\r\n        return (doc.owner, doc.timestamp);\r\n    }\r\n}",
  "sourcePath": "D:\\BlockChain MiniProject\\truffle\\contracts\\SimpleDigitalNotary.sol",
  "compiler": {
    "name": "solc",
    "version": "0.8.18+commit.87f61d96.Emscripten.clang"
  },
  "schemaVersion": "3.4.16",
  "updatedAt": "2024-09-28T16:12:22.998Z",
  "networkType": "ethereum",
  "devdoc": {
    "kind": "dev",
    "methods": {},
    "version": 1
  },
  "userdoc": {
    "kind": "user",
    "methods": {},
    "version": 1
  }
}